S00D000075617274732E73726563E8
S11300004AC064C063C062C061C060C05FC05EC0FB
S11300105DC04BC25BC05AC059C058C057C056C01F
S113002055C0A4C3A7C3AAC3ADC3B0C3B3C3B6C3A7
S1130030B9C30000B80E1C0DAE0B060BD209C008E4
S1130040CC075C078E06D7058305E9046004E60344
S1130050AE03470300008C1280118410980FB80E71
S1130060E40D1C0D600CAE0B060B680AD2094609A0
S1130070C0084208CC075C07F2068E063006D70596
S113008083053405E904A30460042104E603AE03F4
S113009079034703180311241FBECFE5D2E0DEBF66
S11300A0CDBF11E0A0E6B0E0E0E4F8E002C00590C6
S11300B00D92A239B107D9F722E0A2E9B1E001C05B
S11300C01D92A934B207E1F7E6D2B8C399CF90BD27
S11300D089B988E18AB9579A86E880BD08955D9BFD
S11300E0FECF8CB908950F931F93CF938C018DE0AD
S11300F0F6DFF8018081882349F0C0E0F0DFCF5FAC
S1130100F801EC0FF11D80818111F8CF8DE0E7DF5C
S1130110CF911F910F9108950097C1F480916000D1
S1130120909161008430910550F50196909361009F
S11301308093600088E08BBB2FE986E891E0215032
S113014080409040E1F700C0000008950197B9F4A1
S113015080916000909161008230910580F0019758
S1130160909361008093600084E08BBB2FE986E864
S113017091E0215080409040E1F700C000000895D4
S11301800097C1F48091980190919901873091056D
S113019050F50796909399018093980188E08BBB62
S11301A02FE986E891E0215080409040E1F700C0BB
S11301B0000008950197B9F48091980190919901F4
S11301C08730910580F00797909399018093980167
S11301D084E08BBB2FE986E891E021508040904079
S11301E0E1F700C000000895AF92BF92CF92DF9272
S11301F0EF92FF920F931F93CF93DF9300D01F9240
S1130200CDB7DEB77C016BDF83E0E80EF11CFF2085
S11302100CF447C0C0909A01D0909B01A12CB12C42
S113022000E010E0F801E055FE4F90819C3299F512
S1130230339720812983319620812A8331968081C6
S11302408B830F5F1F4FCE010196D3D2C114D1040B
S113025029F4F501EB5CFD4F808312C091E0C916CF
S1130260D10429F4F501EA5EFD4F808311C092E0C8
S1130270C916D10429F4F501E456FE4F808308C061
S113028093E0C916D10421F4F501E55DFD4F8083A7
S11302908FEFA81AB80A0F5F1F4FE016F10614F685
S11302A002C0A12CB12C80919A0190919B018130C4
S11302B0910599F01CF4892B39F029C082309105FD
S11302C0A9F00397E1F023C0F501EB5CFD4F8FEF3C
S11302D0808382E690E007DF1AC0F501EA5EFD4FF5
S11302E08FEF808383E790E0FEDE11C0F501E456D2
S11302F0FE4F8FEF808384E890E0F5DE08C0F501BF
S1130300E55DFD4F8FEF808385E990E0ECDE809121
S11303109A0190919B0101968430910529F0909364
S11303209B0180939A0104C010929B0110929A0140
S11303300F900F900F90DF91CF911F910F91FF902D
S1130340EF90DF90CF90BF90AF900895FC01EE0F37
S1130350FF1FEE5CFF4F25913491232BD1F01FBC7E
S113036029E02EBDE0919801F0919901E80FF91F61
S1130370EE0FFF1FEE5CFF4F859194919BBD8ABDEC
S113038080E48FBD8FE493EC0197F1F700C0000087
S11303901FBC0895EF92FF920F931F93CF93DF93A7
S11303A07C011FBC89E08EBD40E4C8E0D0E086B388
S11303B08F3F09F467C0D701EC91EF3F39F4F7CFD1
S11303C0D801ED918D01EF3F21F4F1CF87010F5F4B
S11303D01F4F9E2F9F718E2F82958695877099232C
S11303E059F0E92FF0E0EE0FFF1FEC5AFF4F259173
S11303F034913BBD2ABD4FBDE82FF0E0EE0FFF1F47
S1130400ED57FE4F0190F081E02DEE0FFF1F60913C
S1130410600070916100CF01D8D1672B99F020E082
S113042030E083EC99E00197F1F700C000002F5F02
S11304303F4F6091600070916100CF01C6D12617D3
S1130440370778F31FBC6091600070916100CE01A2
S1130450BCD1672B99F020E030E0A3ECB9E0119710
S1130460F1F700C000002F5F3F4F60916000709172
S11304706100CE01AAD12617370778F386B38F3FE0
S113048009F09ECF1FBCDF91CF911F910F91FF9078
S1130490EF9008958FE08ABB12BA80E281BB8FEFA0
S11304A088BB17BA85BB14BA08951F920F920FB672
S11304B00F9211242F933F934F935F936F937F93E6
S11304C08F939F93AF93BF93EF93FF938CB18093DC
S11304D02A0290ED980F9A3038F08C3229F0803748
S11304E019F0843609F0C0C020911402309115022D
S11304F02130310531F48F7080932A0290E026DF99
S1130500B9C02091960130919701243C310539F40A
S113051086EA90E0E8DD8DEA90E0E5DD7FC0803793
S113052089F58091920190919301039739F086EABD
S113053090E0D9DD8BEB90E0D6DD70C0C901019667
S11305409093970180939601FC01E055FE4F2CE2B5
S113055020834ADE109293011092920180919601B9
S1130560909197011816190644F4E0EBF1E08055D8
S11305709E4F1192E817F907E1F710929701109234
S113058096014CC08436C9F4215031093093970147
S1130590209396018091920190919301009739F4F0
S11305A083E090E0909393018093920137C0019788
S11305B0909393018093920131C0409192015091A4
S11305C093014330510549F48C3299F086EA90E066
S11305D08ADD82ED90E087DD21C08C3279F44330EE
S11305E051053CF486EA90E07EDD8FED90E07BDD02
S11305F015C0109293011092920106C04F5F5F4F95
S11306005093930140939201F901E055FE4F80838A
S11306102F5F3F4F30939701209396018AEF90E02C
S113062062DD10929501109294018091960190914F
S1130630970118161906F4F480E090E0FC01E055E7
S1130640FE4F80814CDD809194019091950101963B
S11306509093950180939401209196013091970194
S1130660821793075CF306C086EA90E03CDD82E0E3
S113067091E039DDFF91EF91BF91AF919F918F91FF
S11306807F916F915F914F913F912F910F900FBE8A
S11306900F901F901895FEDE8CE090E018DD7894A2
S11306A0109215021092140281E08BBBC4E1D2E0D7
S11306B003B311E0E12CF12C00FD34C08E2D823007
S11306C028F4F0921502E09214021BBB8230A1F4CC
S11306D08091140290911502892B39F480E090E006
S11306E01BDD88818F5F8BBB1DC080E090E048DDFF
S11306F088818F5F8BBB16C08330A1F48091140274
S113070090911502892B39F481E090E005DD888110
S11307108F5F8BBB0EC081E090E032DD88818F5FFC
S11307208BBB07C006958FEFE81AF80A1F5F1530D8
S113073019F696B390FD46C03EC090FD37C0809137
S1130740140290911502019739F401C0E0E081E0B0
S11307508E0F90E0FBDDACCF8E2F90E088309105BA
S113076008F0A6CFFC01EF5EFF4F099481E691E00B
S113077011DE9ECF8CE491E00DDE9ACF8BE391E005
S113078009DE96CF83E191E005DE92CF85E392E026
S113079001DE8ECF86E192E0FDDD8ACF8CE991E027
S11307A0F9DD86CF8BE292E0F5DD82CF9695EF5F9F
S11307B0E83019F67DCF80911402909115020197CB
S11307C0A9F6C4CF9695E1E0B8CFAA1BBB1B51E1B3
S11307D007C0AA1FBB1FA617B70710F0A61BB70BAD
S11307E0881F991F5A95A9F780959095BC01CD0152
S11307F00895FC0188279927E89421912032E9F390
S1130800293010F02E30C8F32B3239F02D3231F468
S1130810689403C00BD0820F911D219120532A307C
S1130820C8F31EF4909581959F4F08957AE0979FA1
S1130830902D879F802D910D11240895F894FFCF5A
S113084002006D656C6F6479206973206F6E2050AF
S11308504234006D656C6F6479206973206F6E207B
S1130860504235006D656C6F6479206973206F6E3A
S113087020504236006D656C6F6479206973206F77
S11308806E20504237006572726F7221006C696D80
S113089069742072656163686564006C61737420B7
S11308A06E6F746520697320746F6F2073686F7244
S11308B07400657870656374656420272C27006371
S11308C06F7272656374206E6F7465206973203370
S11308D020636872206C6F6E67006D656C6F64795D
S11308E03A00507574206E756D6265727320312EF6
S11308F02E37004B404F202B202B2F202B20352030
S11309004B4052202B202B3320322E202B20322000
S113091037202B2A202926202D4BFF908F8D88905D
S11309208F8D88908F8D8892908F90FF4A6D804034
S11309304D6A80404F4D4F4D4F4D4F4D4F7180404C
S1130940FF848D8D8B8D8B8D898484848D8D8E8B8E
S1130950B0809092929A9A9997959099999799B50F
S11309608060FF04000800100020004000800000A8
S1050970010080
S9030000FC
